:020000040000FA
:100000000C945F010C9487010C9487010C94870178
:100010000C9487010C9487010C9487010C94870140
:100020000C9487010C9487010C9487010C94870130
:100030000C9487010C9487010C9487010C94870120
:100040000C9492210C9487010C9402220C94DC21D4
:100050000C9487010C9487010C9487010C94870100
:100060000C9434220C94870100407A10F35A00A0BB
:10007000724E18090010A5D4E80000E87648170071
:1000800000E40B54020000CA9A3B000000E1F505B1
:10009000000080969800000040420F000000A086FB
:1000A00001000000102700000000E803000000002D
:1000B0006400000000000A000000000001000000D1
:1000C00000002C76D888DC674F0823DFC1DFAE59EB
:1000D000E1B1B796E5E3E453C63AE651997696E87E
:1000E000E6C28426EB898C9B62ED407C6FFCEFBC02
:1000F0009C9F40F2BAA56FA5F490055A2AF75C932D
:100100006B6CF9676DC11BFCE0E40D47FEF520E662
:10011000B500D0ED902E0300943577050080841E45
:10012000080000204E0A000000C80C333333330FA0
:10013000986E12831141EF8D2114893BE65516CF3D
:10014000FEE6DB18D1844B381BF77C1D901DA4BB49
:10015000E424203284725E228100C9F124ECA1E5FE
:100160003D27626C6E6B696E660076657200312E9B
:10017000322E3000682D626561740034350062757E
:1001800066662D696E003235360064657600417210
:100190006475696E6F006370750041546D656761C9
:1001A0003332385000636F6E00573531303000669F
:1001B000772D7479706500544D504C33796B4362E0
:1001C000796D7165006275696C64004170722032EE
:1001D0003920323032332030393A34373A31320034
:1001E000000000000000240027002A00000000009A
:1001F000250028002B000000000023002600290015
:1002000004040404040404040202020202020303BC
:1002100003030303010204081020408001020408C4
:100220001020010204081020000000080002010054
:100230000003040700000000000000008A018A019A
:100240008A018A018A018A018A018A018A018A0156
:100250008A018A018A018A018A018A018A018A0146
:100260008A018A018A018A018A018A018A018A0136
:100270008A018A018A018A018A018A01880A890120
:10028000640A8901440A1E0A8901890189018901D8
:10029000890189018901890189018901890189010E
:1002A00089018901890189018901890189018901FE
:1002B000890189018901890189018901DF231124CB
:1002C0001FBECFEFD8E0DEBFCDBF13E0A0E0B1E0AE
:1002D000E6EDF9E602C005900D92A830B107D9F716
:1002E00026E0A8E0B3E001C01D92A73FB207E1F706
:1002F00011E0CFE5D1E004C02197FE010E94EA336E
:10030000CE35D107C9F70E94D4240C94E9340C945B
:100310000000089508958CBD9DBD089520E3FC0163
:1003200020833296862F82958F706F706A3030F4FA
:10033000605D6293682F8111F5CF0895695CF9CFF4
:10034000FC01818D928D0895833081F028F48130F5
:1003500099F08230A9F008958730A9F08830C9F06B
:100360008430B1F4809180008F7D03C08091800043
:100370008F7780938000089584B58F7784BD08952A
:1003800084B58F7DFBCF8091B0008F778093B000D4
:1003900008958091B0008F7DF9CF1F93CF93DF93A5
:1003A000282F30E0F901E85DFD4F8491F901EC5E02
:1003B000FD4FD491F901E050FE4FC491CC23A9F038
:1003C000162F81110E94A401EC2FF0E0EE0FFF1F09
:1003D000E451FE4FA591B4918FB7F894EC911111AF
:1003E00008C0D095DE23DC938FBFDF91CF911F91A2
:1003F0000895DE2BF8CFCF93DF9390E0FC01EC5E05
:10040000FD4F249180509E4FFC0184918823C9F0B8
:1004100090E0880F991FFC01EE51FE4FA591B49119
:10042000FC01E451FE4FC591D49161110DC09FB7FD
:10043000F8948C91209582238C938881282328839B
:100440009FBFDF91CF910895623051F49FB7F89428
:100450003C91822F809583238C93E8812E2BEFCFC4
:100460008FB7F894EC912E2B2C938FBFEACF1F936C
:10047000CF93DF93182FEB0161E00E94FB012097DF
:1004800039F460E0812FDF91CF911F910C94CD0161
:10049000CF3FD10511F461E0F5CFE12FF0E0E85D49
:1004A000FD4FE491E33031F140F4E130B1F0E2305E
:1004B000E1F0C038D1057CF7E4CFE73029F1E8302E
:1004C00059F1E430B1F78091800080628093800020
:1004D000D0938B00C0938A0004C084B5806884BD2B
:1004E000C7BDDF91CF911F91089584B5806284BD0F
:1004F000C8BDF7CF80918000806880938000D09342
:100500008900C0938800EDCF8091B000806880930F
:10051000B000C093B300E5CF8091B00080628093BB
:10052000B000C093B400DDCF8E3008F08E508770DD
:10053000806480937C0080917A00806480937A004C
:1005400080917A0086FDFCCF8091780090917900AF
:1005500008953FB7F89480913A0490913B04A0919C
:100560003C04B0913D0426B5A89B05C02F3F19F06F
:100570000196A11DB11D3FBFBA2FA92F982F882723
:10058000BC01CD01620F711D811D911D42E0660FFE
:10059000771F881F991F4A95D1F708958F929F92D0
:1005A000AF92BF92CF92DF92EF92FF926B017C01EC
:1005B0000E94A9024B015C01C114D104E104F104C1
:1005C000B9F00E94A902681979098A099B09683E55
:1005D00073408105910580F321E0C21AD108E1083A
:1005E000F10888EE880E83E0981EA11CB11CE4CFB0
:1005F000FF90EF90DF90CF90BF90AF909F908F9043
:1006000008952FB7F8946091360470913704809163
:100610003804909139042FBF0895089508950895DE
:100620004F925F926F927F92AF92BF92CF92DF9282
:10063000EF92FF920F931F93CF93DF93EC016B0127
:100640007B01E40EF51E8B015801AC18BD080E1598
:100650001F0511F10E940103688779878A879B87AC
:10066000E881F9810284F385E02DCE01099597FF99
:1006700023C00E940103488459846A847B846419DE
:100680007509860997094C805D806E807F806415AE
:1006900075058605970520F3C501DF91CF911F9160
:1006A0000F91FF90EF90DF90CF90BF90AF907F9031
:1006B0006F905F904F900895F80181938F01C4CFA0
:1006C000AF92BF92CF92DF92EF92FF920F931F9360
:1006D000CF93DF936C017B018B01040F151FEB019E
:1006E0005E01AE18BF08C017D10759F06991D60155
:1006F000ED91FC910190F081E02DC6010995892BC7
:1007000079F7C501DF91CF911F910F91FF90EF9085
:10071000DF90CF90BF90AF900895FC01538D448D32
:10072000252F30E0842F90E0821B930B541710F09C
:10073000CF96089501970895FC01918D828D9817A9
:1007400061F0A28DAE0FBF2FB11D5D968C91928D81
:100750009F5F9F73928F90E008958FEF9FEF0895B2
:10076000FC01918D828D981731F0828DE80FF11D7B
:10077000858D90E008958FEF9FEF0895FC01918D96
:10078000228D892F90E0805C9F4F821B91098F738F
:10079000992708958BE594E00E94BE0321E0892B00
:1007A00009F420E0822F089580E090E0892B29F061
:1007B0000E94CA0381110C9400000895FC01A48DCD
:1007C000A80FB92FB11DA35ABF4F2C91848D90E073
:1007D00001968F739927848FA689B7892C93A08956
:1007E000B1898C91837080648C93938D848D9813E0
:1007F00006C00288F389E02D80818F7D8083089573
:10080000EF92FF920F931F93CF93DF93EC0181E060
:10081000888F9B8D8C8D98131AC0E889F989808107
:1008200085FF15C09FB7F894EE89FF896083E8893A
:10083000F98980818370806480839FBF81E090E02C
:10084000DF91CF911F910F91FF90EF900895F62EB9
:100850000B8D10E00F5F1F4F0F731127E02E8C8D53
:100860008E110CC00FB607FCFACFE889F989808198
:1008700085FFF5CFCE010E94DE03F1CFEB8DEC0FAB
:10088000FD2FF11DE35AFF4FF0829FB7F8940B8FB5
:10089000EA89FB8980818062CFCF682F8BE594E065
:1008A0000C940004CF93DF93EC01888D8823B9F07A
:1008B000AA89BB89E889F9898C9185FD03C080816B
:1008C00086FD0DC00FB607FCF7CF8C9185FFF2CFE8
:1008D000808185FFEDCFCE010E94DE03E9CFDF915D
:1008E000CF91089520914A03260F3327331F2132D9
:1008F0003105ECF420919303FC0190E080E024307A
:1009000069F082E00895A0914A032191AC01465D0F
:100910005C4FA40FB52FB11D2C930196861798F349
:1009200080914A03680F60934A0380E0089581E054
:1009300008951092930381E08093920310926D03C7
:1009400061E082E10E94CD0161E083E10E94CD017E
:10095000E9EBF0E080818E7F808380818D7F8083D2
:1009600088E48093B80085E48093BC000895CF9319
:10097000DF9391E0909329038823B9F0C091B800E8
:10098000D091BA008091BC008A7B8093BC0060E06B
:1009900082E10E94CD0160E083E10E94CD010E94CE
:1009A0009904D093BA00C093B800DF91CF91089515
:1009B000E091300480912F04E81730F4F0E0E75F15
:1009C000FC4F808190E008958FEF9FEF0895909104
:1009D000300480912F042FEF3FEF981748F4E92F50
:1009E000F0E0E75FFC4F208130E09F5F90933004A0
:1009F000C901089580912F0490913004891B990BAF
:100A00000895CF92DF92EF92FF920F931F93CF93AF
:100A1000DF937C01CB018A0120919903222389F085
:100A2000EB016B01C40ED51ECC15DD0569F0699193
:100A3000D701ED91FC910190F081E02DC70109955E
:100A4000F3CF642F0E947204C801DF91CF911F91F0
:100A50000F91FF90EF90DF90CF900895CF93DF93A9
:100A60001F92CDB7DEB76983209199032223F9F055
:100A700020912D04203258F021E030E0FC01338336
:100A8000228390E080E00F90DF91CF9108958091D4
:100A90002E04E82FF0E0E656FC4F998190838F5F9B
:100AA00080932E0480932D0481E090E0ECCF61E0F0
:100AB000CE0101960E947204F7CFCF92DF92EF929F
:100AC000FF920F931F93CF93DF93FC01C48121E02A
:100AD00020939903C093BA0310922E0410922D0410
:100AE0008385682B88EF94E00E942E05D0912D0419
:100AF000D13208F092C00E94A9026B017C01809162
:100B00009303811165C082E08093930381E0809319
:100B100092038FEF8093910310929003D0938F03F1
:100B2000AAE9B3E0EFE6F3E080E0D81385C01092C5
:100B30006E0380916E03CC0FC82BC0936E0380911F
:100B40006D03813009F07CC010926D030E94A902F0
:100B50006B017C0180916E038093BB0080919503B3
:100B600090919603A0919703B0919803892B8A2BBB
:100B70008B2B99F00E94A902009195031091960386
:100B800020919703309198036C197D098E099F0974
:100B90000617170728073907E0F18091BC0083FD8D
:100BA000D9CF85EC8093BC000E94A9026B017C0127
:100BB00080919303823009F445C0809191038F3F67
:100BC00061F180919103803241F18091910325C0C0
:100BD0008091950390919603A0919703B09198030B
:100BE000892B8A2B8B2B09F48ACF0E94A9020091B2
:100BF00095031091960320919703309198036C19F7
:100C00007D098E099F09061717072807390708F07D
:100C100076CF809194030E94B70410922E04109214
:100C20002D0410929903DF91CF911F910F91FF90A6
:100C3000EF90DF90CF9008959D9191938F5F75CF46
:100C400085EEB0CF8091950390919603A091970384
:100C5000B0919803892B8A2B8B2B09F4A9CF0E9482
:100C6000A90200919503109196032091970330916A
:100C700098036C197D098E099F0906171707280725
:100C8000390708F095CFC5CFFC0120812EBD9B010F
:100C90002150310941F051810DB407FEFDCF4EB511
:100CA0005EBD4193F5CF61507109860F971F0DB45A
:100CB00007FEFDCF2EB5FC0120830895E091BC0313
:100CC000F091BD0380819091BB03892B80830895AF
:100CD000E091BC03F091BD0390818091BB038095AE
:100CE0008923808308958EBD00000DB407FEFDCFDB
:100CF0008EB50895AF92BF92CF92DF92EF92FF929E
:100D00000F931F93CF93DF93CDB7DEB728970FB61E
:100D1000F894DEBF0FBECDBF8C017B016A018091CC
:100D20005A048333E1F45801A40EB51EA016B1068F
:100D300009F46FC00E94680680EF0E947306812F3D
:100D40000E947306802F0E9473060F5F1F4FF701EA
:100D500081917F010E9473060E945E06E7CF5B01CE
:100D6000A40EB51E8433C1F40E94680619830A8359
:100D70008D2D80688B83CC8264E070E0CE0101967B
:100D80000E944406AE14BF0409F441C0F7018191EA
:100D90007F010E947306F6CF0E9468060F3F11057F
:100DA00009F028F419820A8384E08B830CC017FDB4
:100DB00017C019820A8333E0169507953A95E1F733
:100DC000007E0C600B8386E0C816D104A0F5F70105
:100DD000DE011496EA15FB0599F081918D93FACF07
:100DE000C80126E0969587952A95E1F7807E1983BC
:100DF0000A830115104C10F48461D7CF8C61D5CFD4
:100E0000B6016D5F7F4FCE0101960E9444060E949D
:100E10005E06C60128960FB6F894DEBF0FBECDBFA2
:100E2000DF91CF911F910F91FF90EF90DF90CF90C6
:100E3000BF90AF90089563E070E0CE0101960E94EC
:100E40004406F70181917F010E947306AE14BF042E
:100E5000C1F7DDCFCF93DF931F92CDB7DEB7898384
:100E600041E050E0BE016F5F7F4F90E080E00E9464
:100E70007A060F90DF91CF91089590E020915A0467
:100E8000233339F40C96982F990F990F990F80E01E
:100E900008954896F8CFDA01E091BF03F0E0FE2F05
:100EA000EE27E60FF71F90E0982F8827A901BD01D4
:100EB0008E0F9F1F0C947A06CF93DF9300D0CDB78F
:100EC000DEB779836A8322E030E0AE014F5F5F4F87
:100ED00060E170E00E944B070F900F90DF91CF917F
:100EE0000895CF93DF9300D0CDB7DEB779836A83BF
:100EF00022E030E0AE014F5F5F4F64E070E00E949F
:100F00004B070F900F90DF91CF910895CF93DF9310
:100F10001F92CDB7DEB72091BF0330E0322F2227DA
:100F2000260F371F90E0982F8827498341E050E033
:100F3000BE016F5F7F4F820F931F0E947A060F9052
:100F4000DF91CF910895CF93DF931F92CDB7DEB796
:100F50006983DC01ED91FC910280F381E02D41E099
:100F600050E0BE016F5F7F4F09950F90DF91CF91E9
:100F70000895FC019485FB018485981303C081E0EA
:100F8000943008F080E00895CF93DF931F92CDB79F
:100F9000DEB76983DC01ED91FC910280F381E02DE5
:100FA00041E050E0BE016F5F7F4F09950F90DF91E8
:100FB000CF9108950895FF920F931F93CF93DF93DE
:100FC000EB01FC01178A168A2A81211109C02B81A5
:100FD000211106C02C81211103C02D81222301F192
:100FE00041155105E9F08A01FC01F08C80E591E0A2
:100FF0000E948B01AE014E5F5F4F24E030E06CE059
:1010000070E08F2D0E944B07B8018F2D0E945C0766
:1010100081E090E0DF91CF911F910F91FF900895B3
:1010200080E0F7CFFC01848595850895FC018489D3
:10103000958908952BEC31E0FC0131832083FB017D
:101040004089518962897389FC0142835383648397
:1010500075830895DC01ED91FC91048CF58DE02DF4
:10106000099490E080E008958EE00E949402BC0113
:10107000990F880B990B0E94993120E030E040EAEB
:1010800050E40E94F83120E030EC4FE754E40E9435
:1010900050332AE037ED43E25CE30E945033089579
:1010A00090E080E00E944D0490E080E00C944D04BC
:1010B00090E080E00E944D0481E090E00C944D04AB
:1010C000CF9380E390E00E944D048BE594E00E9472
:1010D000BE03892BD1F38BE594E00E949C03C82FBB
:1010E000809308038BE594E00E94BE03892BD1F323
:1010F0008BE594E00E949C0320E03C2FA901482B43
:10110000CA01CF910895EF92FF920F931F93CF934F
:10111000DF9300D000D000D0CDB7DEB7DC01AB014B
:1011200018966D917C9119978D919C911197FC0166
:101130002081318161157105B9F0D9015096ED9189
:10114000FC91099521E0019709F020E0822F269675
:101150000FB6F894DEBF0FBECDBFDF91CF911F91C8
:101160000F91FF90EF900895F901E684F7842BEC3E
:1011700031E03A83298314960D911D912D913C9174
:1011800017970B831C832D833E83BE016F5F7F4FB8
:10119000F701D7CFFC019485992369F08081918173
:1011A000DC01ED91FC910688F789E02D099591E02D
:1011B000811101C090E0892F0895DC011C961C92DA
:1011C0001C978D919C91009739F0DC01ED91FC9179
:1011D0000488F589E02D09940895FC0176876587D8
:1011E0000895DC01ED91FC9102A0F3A1E02D099599
:1011F00091E089270895862F089581E08627089534
:1012000021E0FC018485843008F020E0822F0895DD
:1012100008958F929F92AF92BF92EF92FF920F9399
:101220001F93CF93DF93CDB7DEB7A1970FB6F89496
:10123000DEBF0FBECDBF7C01FA01CB0119A2223067
:1012400008F42AE08E010F5D1F4F822E912CB12CE5
:10125000A12CBF01A50194010E941F33F901CA010D
:101260006A3074F5605DD8016E938D01232B242BB9
:10127000252B79F790E080E0109789F0FD0101902F
:101280000020E9F73197AF014A1B5B0BD701ED91C5
:10129000FC910280F381E02DB801C7010995A19668
:1012A0000FB6F894DEBF0FBECDBFDF91CF911F9177
:1012B0000F91FF90EF90BF90AF909F908F90089507
:1012C000695CD1CFFC0101900020E9F73197AF01B3
:1012D000481B590BBC018AE395E00C9460030C9405
:1012E000712D8F929F92AF92BF92CF92DF92EF9229
:1012F000FF920F931F93CF93DF937C01EB016C015F
:1013000082E0C80ED11C4701E5E08E0E911C10E072
:1013100000E0F60141916F0150E070E060E02AE0EA
:10132000CE010E9409095C01E881F9810190F081F8
:10133000E02D6EE2CE0109958A0D9B1D080F191F45
:10134000C814D90431F7F701458150E070E060E03E
:101350002AE0CE010E940909800F911FDF91CF91F1
:101360001F910F91FF90EF90DF90CF90BF90AF90C3
:101370009F908F9008950F931F93CF938C01C62F4A
:101380000E945D056C2F6460C8010E945D056C2F92
:101390006B7FC8010E945D0583EC90E00197F1F737
:1013A000CF911F910F9108950F931F93CF93DF93C8
:1013B0008C01D62FC42F607F642B0E94BB0980E173
:1013C000D89FB00111246C2BC801DF91CF911F91E0
:1013D0000F910C94BB09CF93DF93CDB7DEB728975D
:1013E0000FB6F894DEBF0FBECDBF98E0EDE2F1E09E
:1013F000DE01119601900D929A95E1F790914205C8
:10140000961708F46FEF262F30E0220F331F41E0CC
:1014100050E04C0F5D1F240F351FF9016081680FEC
:10142000606840E08AE395E028960FB6F894DEBF46
:101430000FBECDBFDF91CF910C94D409FB01808109
:1014400091810E949E2E892B81F081E090E00E9484
:101450004D0481E090E00E944D0461E087E00E942D
:10146000EB098DEC91E00C94620981E090E00E9420
:101470004D0490E080E00E944D0461E087E00E940E
:10148000EB0987ED91E0EFCFFB01808191810E9414
:101490009E2E21E0009709F420E020933204892B4E
:1014A00051F00E94580861E087E00E94EB0981EE4C
:1014B00091E00C9462090E94500861E087E00E946C
:1014C000EB098BEE91E0F5CFFB01808191810E94C9
:1014D0009E2E21E0009709F420E020933104892B0F
:1014E00061F061E085E00E94CD0160E087E00E944C
:1014F000EB0985EF91E00C94620960E085E00E94C1
:10150000CD0160E087E00E94EB098FEF91E0F3CF1F
:10151000FB01808191810E949E2E892B61F061E008
:1015200084E00E94CD0160E087E00E94EB0989E041
:1015300092E00C94620960E084E00E94CD0160E0DA
:1015400087E00E94EB0983E192E0F3CF41E00E9443
:10155000D40981E090E00895AF92BF92CF92DF92DC
:10156000EF92FF920F931F93CF93DF9300D000D0A1
:10157000CDB7DEB78C016B017A0180915A048333B9
:10158000E9F45B016801C40ED51EC016D106A9F1AD
:101590000E9468068FE00E947306812F0E947306E6
:1015A000802F0E9473060F5F1F4F80E00E9473061A
:1015B000F50181935F010E945E06E7CF843369F5F0
:1015C0000E94680619830A838F2D8F778B83EC82A4
:1015D00064E070E0CE0101960E944406A70170E02D
:1015E00060E0C6010E94C334E114F10421F0B701A8
:1015F000C6010E9444060E945E06C7010F900F902C
:101600000F900F90DF91CF911F910F91FF90EF906E
:10161000DF90CF90BF90AF9008950E9468060F3F73
:10162000110509F030F419820A831B8263E070E02F
:10163000D1CF17FD0BC019820A8333E016950795A9
:101640003A95E1F7007E08600B83F0CFC80126E0F1
:10165000969587952A95E1F7807E19830A8301156F
:10166000104C18F480618B83E1CF8861FCCFCF935D
:10167000DF931F92CDB7DEB72091BF0330E0322F4A
:101680002227260F371F90E0982F882741E050E04F
:10169000BE016F5F7F4F820F931F0E94AC0A89814A
:1016A0000F90DF91CF910895CF93C82F462F61E01F
:1016B00070E00E94860761E070E08C2F0E94370B7B
:1016C0008111F9CFCF910895CF93C82F80E591E094
:1016D0000E948B0168E070E08C2FCF910C94540B2A
:1016E000CF93C82F80E591E00E948B0160E170E00C
:1016F0008C2FCF910C94540BCF93DF93EC01888DFA
:10170000843020F40E94700B84E0888FDF91CF91A9
:101710000895CF93C82F80E591E00E948B0163E08C
:1017200070E08C2FCF910C94370BCF93DF93EC01AB
:101730008C858430D0F40E94890B843189F0882311
:1017400079F0883169F021E08C3159F4E881F98130
:101750000084F185E02DCE01099521E0892B09F463
:1017600020E0822FDF91CF91089580E0FBCFCF92D0
:10177000DF92EF92FF92CF93DF93EC018C85843060
:1017800068F40E94640B0E9401036B017C018C854C
:101790000E94890B811109C084E08C87DF91CF9171
:1017A000FF90EF90DF90CF90089561E070E080E0CF
:1017B00090E00E94CE020E940103AB01BC014C19D3
:1017C0005D096E097F098D859E85B0E0A0E0481710
:1017D00059076A077B07D8F28C850E94700BDCCF13
:1017E000CF93FC01C08D80E591E00E948B0160E207
:1017F00070E08C2F0E94540B62E070E08C2F0E94EE
:10180000370B84FD16C062E070E08C2F0E94370B0E
:1018100083FF0AC048E162E070E08C2F0E948607D7
:1018200080E090E0CF91089580E591E00E948B01E7
:10183000E3CF40E162E070E08C2F0E94860781E0F8
:10184000F0CFCF93DF931F92CDB7DEB741E050E0EA
:10185000BE016F5F7F4F90E080E00E94AC0A8981FB
:101860000F90DF91CF910895CF93DF93C4E1D0E043
:101870000E94210C882361F061E070E080E090E03C
:101880000E94CE022197A1F780E0DF91CF910895C9
:1018900081E0FBCF1F93CF93DF931F92CDB7DEB7CD
:1018A000182F80E591E00E948B01812F0E943D0757
:1018B00027E0129FF0011124E25CFB4F228133816B
:1018C000377041E050E0BE016F5F7F4F820F931F82
:1018D0000E94AC0A89810F90DF91CF911F910895EA
:1018E000FC01808D843040F4218D328D232B21F03A
:1018F0000E944A0C90E008958FEF9FEF0895CF93D8
:10190000DF93FC012485243028F08FEF9FEFDF91D7
:10191000CF910895EC010190F081E02D0084F185D4
:10192000E02D0995892B89F38C850E944A0C90E063
:10193000EECFDA01E091BF03F0E0FE2FEE27E60FD5
:10194000F71F90E0982F8827A901BD018E0F9F1FD8
:101950000C94AC0A8F929F92AF92BF92CF92DF927B
:10196000EF92FF921F93CF93DF93CDB7DEB72C9703
:101970000FB6F894DEBF0FBECDBF20915A0414E01D
:10198000222339F16B017C0180E591E00E948B01FB
:101990005E0127E0A20EB11C450110E063E070E09B
:1019A000812F0E94370BF40181934F01882349F165
:1019B0001F5F143099F710E0F50181915F018D31BF
:1019C000D9F08831C9F08A518230B0F01F5F1430ED
:1019D00099F7812F2C960FB6F894DEBF0FBECDBFBE
:1019E000DF91CF911F91FF90EF90DF90CF90BF904C
:1019F000AF909F908F90089560E170E0812F0E94DA
:101A0000540BA12EB12C83EE93E00197F1F742E83D
:101A100070E060E0812F0E9486074FEF62E070E087
:101A2000812F0E948607B601C114D10491F48091E0
:101A300021019091220101968115F0EC9F0708F495
:101A40005CC09093220180932101609121017091EB
:101A50002201812F0E94710786E0E5E3F1E0DE01BB
:101A6000119601900D928A95E1F7F70183818F77A6
:101A70008C8384818D8385818E83A7014E5F5F4F28
:101A800024E030E06CE070E0812F0E944B07B6014B
:101A9000812F0E945C0726E030E0AE014F5F5F4F70
:101AA00066E070E0812F0E944B0761E070E0812FBB
:101AB0000E94540B27E02A9DC0012B9D900D1124FC
:101AC0009C01225C3B4F7901F9011182108222E0D6
:101AD00030E0AE01455F5F4F68E270E0812F0E9409
:101AE000990C8B859C85982789279827F7019383E4
:101AF00082831682158214826CCF80E090ECA1CF95
:101B0000CF92DF92EF92FF920F931F93CF93DF93C9
:101B100000D000D000D0CDB7DEB78C016B017A01C8
:101B2000FC01808D843010F40E94700B8BEC91E0EE
:101B30009A838983F60182819381A481B5818B8305
:101B40009C83AD83BE83B701CE0101960E94AA0C8F
:101B5000F801808F8430A0F4F586E486128E118E11
:101B600081E026960FB6F894DEBF0FBECDBFDF91A1
:101B7000CF911F910F91FF90EF90DF90CF9008953C
:101B800080E0EFCFAF92BF92CF92DF92EF92FF92C1
:101B90000F931F93CF93DF9300D000D000D0CDB729
:101BA000DEB7082F6B0180E591E00E948B019E015A
:101BB0002F5F3F4F7901590110E063E070E0812F02
:101BC0000E94370BF50181935F01882341F11F5F6C
:101BD000143099F710E0F70181917F018D31D1F038
:101BE0008831C1F08A518230A8F01F5F143099F714
:101BF000812F26960FB6F894DEBF0FBECDBFDF91C2
:101C0000CF911F910F91FF90EF90DF90CF90BF90F9
:101C1000AF90089560E170E0812F0E94540BE12E97
:101C2000F12C83EE93E00197F1F7402F70E060E034
:101C3000812F0E9486074FEF62E070E0812F0E94A3
:101C40008607B601CD2889F4809121019091220167
:101C500001968115F0EC9F0798F1909322018093F3
:101C600021016091210170912201812F0E94710751
:101C700061E070E0812F0E94540B27E02E9DC0018F
:101C80002F9D900D11249C01225C3B4F7901F9019D
:101C90001182108222E030E0AE014B5F5F4F68E2BC
:101CA00070E0812F0E94990C8D819E819827892751
:101CB0009827F7019383828316821582148298CF26
:101CC00080E090ECCACFCF92DF92EF92FF921F9309
:101CD000CF93DF93EC017B016A018C85843048F45B
:101CE0000E94890B882319F08C850E94640B84E084
:101CF0008C87F70182819381A481B5810097A1052A
:101D0000B10551F490E080E0DF91CF911F91FF90F9
:101D1000EF90DF90CF9008958F3F9F4FAF4FBF4F11
:101D200089F380915A04811103C084E08C87EACF43
:101D300070E060E081E20E94C20D182F8C87843031
:101D400008F780E591E00E948B01A7014E5F5F4F8D
:101D500024E030E06CE070E0812F0E944B07B60178
:101D6000812F0E945C0764E070E0812F0E94540B79
:101D70000E9401036B017C018C850E94890B8731D5
:101D800009F18C31F9F0882309F4BCCF0E940103DA
:101D9000AB01BC014C195D096E097F098D859E85DB
:101DA000B0E0A0E084179507A607B70738F061E018
:101DB00070E080E090E00E94CE02DECF8C850E9431
:101DC000700BB3CF81E090E09FCF0F931F93CF9321
:101DD000DF93EC018B01888D843010F40E94700B2E
:101DE00080915A04811107C094E0988FDF91CF91C0
:101DF0001F910F910895B80182E00E94C20D888F53
:101E0000843030F41D870C871A8E198E81E0EECF56
:101E100080E0ECCF7F928F929F92AF92BF92CF9251
:101E2000DF92EF92FF920F931F93CF93DF9300D037
:101E3000CDB7DEB7782E8B014A01590122E030E0A0
:101E4000AE014F5F5F4F64E270E00E94990CE98041
:101E5000FA80FE24EF24FE24E00EF11E9701377075
:101E600040915A04072D10E0433309F042C0085F47
:101E70001F4F102F0027110F110F110FC901800FD5
:101E8000911F4733C9F1A9014A0D5B1D41305840EC
:101E900098F160E078E06B01C21AD30AA601B401A0
:101EA0000E947A06A5014C195D09B4016C0D7D1DD7
:101EB000C8010E947A06EA0CFB1CF982EA8222E041
:101EC00030E0AE014F5F5F4F64E270E0872D0E940B
:101ED0004B070F900F90DF91CF911F910F91FF90C3
:101EE000EF90DF90CF90BF90AF909F908F907F90BA
:101EF0000895005F1F4FBDCFA501B401DACFEF9267
:101F0000FF921F93CF93DF9300D0CDB7DEB7182F8A
:101F100022E030E0AE014F5F5F4F60E270E00E9470
:101F2000990CE980FA80FE24EF24FE2422E030E0C0
:101F3000AE014F5F5F4F60E270E0812F0E94990C0D
:101F400089819A81982789279827E816F90689F4C4
:101F500087E0189FF0011124E25CFB4FF582E482D8
:101F6000C7010F900F90DF91CF911F91FF90EF90DD
:101F700008957C01DBCF1F93CF93DF93182F80E56B
:101F800091E00E948B01812F0E947F0FEC0163E0A2
:101F900070E0812F0E94370B873121F08C3111F0D6
:101FA000D0E0C0E0CE01DF91CF911F910895CF9393
:101FB000DF93EC018C85843060F40E94890B8731BB
:101FC00011F08C3131F48C850E94BB0F8115984043
:101FD00088F3DF91CF910895FC018485843010F45B
:101FE0000C94BB0F90E080E008959F92AF92BF9257
:101FF000CF92DF92EF92FF920F931F93CF93DF93D5
:102000008C015B01942EE52EFC01C688D788F08CEC
:1020100080E591E00E948B018F2D0E947F0FC92DDA
:10202000DE2D8C179D0708F4EC019E01A501B60179
:102030008F2D0E940A0FF801868997898C0F9D1FAA
:10204000978B868BCE01DF91CF911F910F91FF90DF
:10205000EF90DF90CF90BF90AF909F9008958F92B8
:102060009F92AF92BF92CF92DF92EF92FF920F9327
:102070001F93CF936C015B018A01FC01C485C430BE
:10208000F0F57A014130584018F0E12C88E0F82E44
:1020900080E591E00E948B018C2F0E947F0F4C0104
:1020A00063E070E08C2F0E94370B873111F08C3188
:1020B00049F58E149F0460F380E591E00E948B0146
:1020C0009701A50170E060E08C2F0E940A0F60E28A
:1020D00070E08C2F0E94540B62E070E08C2F0E9405
:1020E000370B84FD17C063E070E08C2F0E94370B24
:1020F00081110BC081E090E0F6019383828310E0B0
:1021000000E010C0F12CE12CD7CF80E591E00E94D7
:102110008B01E2CF40E162E070E08C2F0E948607E5
:10212000EF2841F3C801CF911F910F91FF90EF90DD
:10213000DF90CF90BF90AF909F908F900895FF92C7
:102140000F931F93CF93DF9300D0CDB7DEB7F82E58
:1021500022E030E0AE014F5F5F4F66E270E00E9428
:10216000990C09811A8110270127102722E030E0FD
:10217000AE014F5F5F4F66E270E08F2D0E94990CB9
:1021800089819A819827892798270817190749F480
:10219000C8010F900F90DF91CF911F910F91FF9089
:1021A00008958C01E3CF1F93CF93DF93182F87E01F
:1021B000189FE0011124C25CDB4F88819981009750
:1021C00061F480E591E00E948B01812F0E949F10B5
:1021D0002E81821B910999838883DF91CF911F9172
:1021E0000895FC018485843010F40C94D31090E0A1
:1021F00080E008954F925F927F928F929F92AF926C
:10220000BF92CF92DF92EF92FF920F931F93CF93E3
:10221000DF9300D0CDB7DEB7782E6B014A01A82E30
:10222000B12C27E0829FC0011124FC01E25CFB4F2E
:102230007F010081118180E591E00E948B010815EA
:10224000190554F4872D0E949F10F70126818C01F7
:10225000021B1109118300830115110529F563E0A3
:1022600070E0872D0E94370B843159F0882349F0A4
:1022700001E010E08C3111F410E000E011950195BF
:102280001109C8010F900F90DF91CF911F910F910D
:10229000FF90EF90DF90CF90BF90AF909F908F9086
:1022A0007F905F904F900895801691060CF4840102
:1022B00087E08A9DF0018B9DF00D1124E25CFB4FBD
:1022C000E280F380C114D10451F12701F7E05F22CD
:1022D000872D0E943D07840D951D20915A042733B8
:1022E00009F453C09801240D351D2130384008F4FD
:1022F0004CC020E038E0490184189508A401B601DB
:102300000E94AC0A2601480C591C6801C818D9085B
:10231000872D0E943D07A601B2010E94AC0AE00E83
:10232000F11E87E08A9DF0018B9DF00D1124E25C87
:10233000FB4FF382E28220813181201B310B3183FC
:1023400020838681800F912F911D8A3F910510F483
:10235000232BF1F487E08A9DF0018B9DF00D112471
:10236000E25CFB4F1682F982EA8222E030E0AE01A5
:102370004F5F5F4F68E270E0872D0E944B0760E47B
:1023800070E0872D0E94540B7CCFA801B601C5CF09
:10239000868377CFCF93DF93FC01218D328D21157A
:1023A000310529F48FEF9FEFDF91CF910895EC0174
:1023B000808D4217530708F0A9010E94FA101816E1
:1023C000190684F7298D3A8D281B390B3A8F298FEE
:1023D000EBCF0F931F93CF93DF931F92CDB7DEB751
:1023E000FC01218D328D232B41F48FEF9FEF0F9055
:1023F000DF91CF911F910F9108958C0141E050E042
:10240000BE016F5F7F4FFC01808D0E94FA1018168D
:1024100019065CF7F801818D928D0197928F818F5B
:10242000898190E0E4CFCF93DF931F92CDB7DEB7E1
:1024300041E050E0BE016F5F7F4FFC0184850E9448
:10244000FA101816190634F4898190E00F90DF9184
:10245000CF9108958FEF9FEFF9CFFC0184858430F1
:1024600010F40C94FA1090E080E008950F931F93FD
:10247000CF93DF9300D0CDB7DEB7FC0124852430A5
:10248000E0F48C0180E591E00E948B0122E030E0D5
:10249000AE014F5F5F4F60E170E0F80184850E94FC
:1024A000990C89819A819827892798270F900F90F6
:1024B000DF91CF911F910F91089590E080E0F6CFCA
:1024C0000F931F93CF93DF9300D0CDB7DEB7FC01FE
:1024D00024852430E0F48C0180E591E00E948B019A
:1024E00022E030E0AE014F5F5F4F64E070E0F80142
:1024F00084850E94990C89819A8198278927982739
:102500000F900F90DF91CF911F910F91089590E060
:1025100080E0F6CFDC018BEC91E08D939D9384E01D
:10252000FB0101900D928A95E1F70895EF92FF92D9
:102530000F931F93CF93DF9300D000D0CDB7DEB7BA
:102540008C017B01FB0184858430A8F08BEC91E049
:10255000F801918380831282138214821582C8014C
:102560000F900F900F900F90DF91CF911F910F91CF
:10257000FF90EF90089580E591E00E948B0124E0A8
:1025800030E0AE014F5F5F4F6CE070E0F701848593
:102590000E94990CBE016F5F7F4FC8010E948A1292
:1025A000DECF0F931F93CF93DF93CDB7DEB728977E
:1025B0000FB6F894DEBF0FBECDBF8C01D80159967F
:1025C0004D915C915A974115510551F0ED91FC9157
:1025D000048CF58DE02D70E060E0C8010995EECF28
:1025E000F801808D0E94D310892BB1F148E050E0B2
:1025F000BE016F5F7F4FD80158968C910E94FA10F0
:1026000018161906F4F4D801509684E0FE013196AC
:1026100001900D928A95E1F78D8190E0982F88279F
:102620002E81820F911DF801958B848B8F81282F2D
:1026300030E0322F22278885820F932F911D928FB1
:10264000818F28960FB6F894DEBF0FBECDBFDF9105
:10265000CF911F910F91089590E080E0F2CF4F92BB
:102660005F926F927F928F929F92AF92BF92CF9222
:10267000DF92EF92FF920F931F93CF93DF93CDB72B
:10268000DEB763970FB6F894DEBF0FBECDBF7C01F7
:102690006B013A01FB0120E090E080E06AE03191BB
:1026A000332309F461C040ED430F4A3008F04DC0B8
:1026B000689FA001699F500D1124CA01C097830F24
:1026C000911D37FD9A958F3F910549F340F3F7012E
:1026D00042815381648175818091300590913105EB
:1026E000A0913205B0913305481759076A077B0757
:1026F00009F40DC28701085F1F4F0E9401036F702C
:1027000077277C5FC8010E94E50E813009F004C282
:102710008BEC91E09A838983F70182819381A48174
:10272000B5818B839C83AD83BE8345E350E0BE01BE
:102730006F5F7F4FC8010E94DB07892BA9F5D12C61
:10274000C12CC8010E947C0B17C03E3209F0BFCFDC
:10275000233009F4BCCFD301A20FB11D12968C9384
:102760002F5F90E080E09BCF233009F0B0CFF301E2
:102770008583CC24C394D12CC60163960FB6F894FC
:10278000DEBF0FBECDBFDF91CF911F910F91FF90A4
:10279000EF90DF90CF90BF90AF909F908F907F9001
:1027A0006F905F904F9008950E940103F701778327
:1027B000668342E050E0B7016A5F7F4FC8010E9424
:1027C000F50F81E090E09A83898342E050E0BE01FA
:1027D0006F5F7F4FC8010E94F50F80E091E09A8300
:1027E000898342E050E0BE016F5F7F4FC8010E94C5
:1027F000F50F1A82198242E050E0BE016F5F7F4FF1
:10280000C8010E94F50F42E050E0BE016F5F7F4FAC
:10281000C8010E94F50F42E050E0BE016F5F7F4F9C
:10282000C8010E94F50F5601F6018081882301F14D
:102830006501F60181912F01882311F08E32B1F4E8
:1028400046018A189B081814190474F48D8641E017
:1028500050E0BE01635F7F4FC8010E94F50FA401E5
:10286000B501C8010E94F50F5201DECF6201E1CF30
:102870001D8641E050E0BE01635F7F4FC8010E94AA
:10288000F50FC12CDD24D394DA82C98242E050E0F6
:10289000BE016F5F7F4FC8010E94F50FDA82C982C7
:1028A00042E050E0BE016F5F7F4FC8010E94F50F0C
:1028B000C8010E94F00B892B09F441CFF3E0AF2E41
:1028C000B12C230122E0420E511CD4C0F7014281F9
:1028D000538164817581808D918DA28DB38D481750
:1028E00059076A077B0709F008C1848D958DC59744
:1028F00009F003C181A192A15DEFC52EDD24DA9418
:102900000C970CF4ADC04CE050E0BE016F5F7F4F00
:10291000C8010E94CA118B819C819827892798271A
:102920009A8B898BF7014681578129813A81421719
:10293000530709F0E7C097FFE5C08F7092703BEF37
:10294000C32EDD24DA94892B09F08AC06F80788445
:102950007624672476242AEFC22EDD24DA946114CB
:10296000710409F47DC0D12CC12C8D819E819827E2
:1029700089279827C816D906F8F441E050E0BE012F
:10298000635F7F4FC8010E94CA114D85442331F017
:1029900050E070E060E0C8010E94CA118D8581118D
:1029A000ECCF44E050E070E060E0C8010E94CA1142
:1029B000FFEFCF1ADF0AD9CF912C812C41E050E0F4
:1029C000BE016D5E7F4FC8010E94CA114B89842FE2
:1029D000807C09F06CC0442331F050E070E060E08E
:1029E000C8010E94CA118B898111E8CF42E050E0F2
:1029F000BE01615F7F4FC8010E94CA1142E050E0F2
:102A0000BE01635F7F4FC8010E94CA1144E050E0DD
:102A100070E060E0C8010E94CA1142E050E0BE01CF
:102A20006F5E7F4FC8010E94CA118F8598894989BE
:102A30005A898115914009F043C0CD84DE84DC249D
:102A4000CD24DC2481E0C816D104D1F541155440D1
:102A500009F04AC044E050E0B201C8010E94CA1126
:102A600021E0A21AB10809F46CCEFFEFCF16DF0601
:102A700009F067CE0E9401033B014C01C8010E948E
:102A8000D112181619060CF421CF0E940103661901
:102A9000770988099909693873418105910548F5D5
:102AA00062E370E080E090E00E94CE02E7CF41E078
:102AB00050E070E060E0C8010E94CA111B8A93CF09
:102AC00054274527542770E060E0C8010E94CA11CE
:102AD000FFEF8F1A9F0A6814790409F06FCF96EF01
:102AE000C92EDD24DA94BCCFE7EFCE2EDD24DA94B4
:102AF000B7CFCC24CA94DC2CB3CF6EEFC62EDD2426
:102B0000DA94AECF4CEFC42EDD24DA94A9CF8EEF49
:102B1000C82EDD24DA9430CED12CC12C2DCECF920C
:102B2000DF92EF92FF920F931F93CF93DF93CDB776
:102B3000DEB7AF970FB6F894DEBF0FBECDBF7C01F6
:102B40006A010BEC11E01A8309831C861B8688EE50
:102B500093E0A0E0B0E08D879E87AF87B88B8FE3CE
:102B600091E09A878987188F0F8B198E1A8E1B8E8A
:102B70001C8E84E089A31BA70AA71CA61DA61EA65F
:102B80001FA68091240590912505A0912605B0915E
:102B900027058EA39FA3A8A7B9A78B839C83AD838A
:102BA000BE8318861F82AE01465D5F4FCE0101963F
:102BB0000E942F1381309105B1F4D701ED91FC9162
:102BC0000488F589E02D1DA30CA38CA59DA5AEA5B9
:102BD000BFA58EA39FA3A8A7B9A7A601BE016C5D40
:102BE0007F4FC7010995AF960FB6F894DEBF0FBEB1
:102BF000CDBFDF91CF911F910F91FF90EF90DF90AC
:102C0000CF900895CF92DF92EF92FF920F931F9390
:102C1000CF93DF93CDB7DEB7AF970FB6F894DEBF93
:102C20000FBECDBF8C016B017A018BEC91E09A83D2
:102C300089831B821C821D821E821C861B8648EE95
:102C400053E060E070E04D875E876F87788B2FE3FD
:102C500031E03A872987988F8F8B198E1A8E1B8EB9
:102C60001C8E24E029A39BA78AA71CA61DA61EA62E
:102C70001FA6D8011C968C91843060F40E94890BA9
:102C8000882321F0F80184850E94640B84E0D80138
:102C90001C968C938091240590912505A091260582
:102CA000B09127058EA39FA3A8A7B9A78B839C8368
:102CB000AD83BE8318861F82AE01465D5F4FB601AD
:102CC000CE0101960E942F130097C1F0D801ED911B
:102CD000FC910684F785E02D8BEC91E09DA38CA3FD
:102CE0008CA59DA5AEA5BFA58EA39FA3A8A7B9A798
:102CF000A701BE016C5D7F4FC8010995AF960FB665
:102D0000F894DEBF0FBECDBFDF91CF911F910F9121
:102D1000FF90EF90DF90CF9008957F928F929F92D7
:102D2000AF92BF92CF92DF92EF92FF920F931F93D9
:102D3000CF93DF93CDB7DEB7A6970FB6F894DEBF7B
:102D40000FBECDBF8C01762E942E852E20E2A22EB2
:102D5000CE0101967C01DC01EA2D1D92EA95E9F78E
:102D60006801F3E4CF0ED11C8BEC91E09AA389A308
:102D70008FEF8BA38CA38DA38EA343E450E0BE0101
:102D80006F5D7F4FC6010E94DB07019609F4BFC04B
:102D900081E089838A8386E0B82EBB821C82D801B9
:102DA00014966D917D918D919C9117970E94D733C8
:102DB0006D837E838F83988789869A8680E890E0EA
:102DC0009C878B874CE150E0B701C6010E94F50F4C
:102DD000FE0137968AE1DF011D928A95E9F74801E5
:102DE000B8E08B0E911CF401D70101900D92BA94BA
:102DF000E1F740E150E0B701C6010E94F50FF7018D
:102E00001192AA94E9F796E0A92EB12C40E250E085
:102E1000B701C6010E94F50FF1E0AF1AB108B1F792
:102E200083E6898392E89A8393E59B838C8385E389
:102E30008D8381E08E837F829DE3988797E09987D9
:102E40008A8786E0F401DE011B9601900D928A9537
:102E5000E1F78CE0898B8A8B6DE172E0CE014396BD
:102E60000E94D334D8011B966C91CE0149960E94E2
:102E70008E01F8016485CE014B960E948E01D80127
:102E80001D966C91CE014D960E948E014EE150E050
:102E9000B701C6010E94F50FB3E07B121EC082E3AA
:102EA000898384E08A83F80196859B8397859C8338
:102EB00090899D8391899E8396E39F838887828DE5
:102EC0008987838D8A87848D8B87858D8C874CE05D
:102ED00050E0B701C6010E94F50F87E3898386E0C1
:102EE0008A8391E09B8393E09C838D838FE08E8324
:102EF0008AE38F838BE388878FEF898749E050E0EF
:102F0000B701C6010E94F50FC6010E94F00BA696FC
:102F10000FB6F894DEBF0FBECDBFDF91CF911F91EA
:102F20000F91FF90EF90DF90CF90BF90AF909F9068
:102F30008F907F9008950F931F93CF93DF93EC01B1
:102F4000FB0101900020E9F78F01061B170B8A8116
:102F50009B81A801480F591F2C813D8124173507FB
:102F600068F028813981A801820F931F0E94BA342A
:102F70004A815B81400F511F5B834A83DF91CF9170
:102F80001F910F9108950F931F93CF93DF93EC013F
:102F900088819981009759F02A813B81261737074C
:102FA00030F081E0DF91CF911F910F9108958B0157
:102FB0006F5F7F4F0E94F033009759F099838883A9
:102FC0001B830A832C813D81232B59F7FC0110823E
:102FD000E8CF80E0E7CF85ED8093BC00809195033A
:102FE00090919603A0919703B09198030796A11D25
:102FF000B11D23E0B695A795979587952A95D1F7AA
:103000002091BC0024FD03C01092930308954091C9
:103010009503509196036091970370919803452B07
:10302000462B472B69F30097A105B10541F02AE231
:103030002A95F1F700C00197A109B109E1CF80916C
:1030400094030C94B7043F924F925F926F927F92D9
:103050008F929F92AF92BF92CF92DF92EF92FF92A8
:103060000F931F93CF93DF93CDB7DEB7EA970FB6D9
:10307000F894DEBF0FBECDBF7C012A013B01690180
:103080000E9401034B015C0187010D5B1F4FC801CA
:103090000E94D112181619069CF00E9401036819AB
:1030A00079098A099B09461657066806790608F4C5
:1030B00066C162E370E080E090E00E94CE02E7CF5C
:1030C00042E250E0BE016F5F7F4FC8010E94CA110B
:1030D00089818230D1F0312C832DEA960FB6F89495
:1030E000DEBF0FBECDBFDF91CF911F910F91FF903B
:1030F000EF90DF90CF90BF90AF909F908F907F9098
:103100006F905F904F903F900895F8018489958962
:103110008334910501F76D817E818F8198850E94AE
:10312000D7334B015C01F60180829182A282B38287
:1031300046E050E0B701685F7F4FCE014D960E9498
:10314000AD34892B41F6F70180819181A281B38151
:1031500088169906AA06BB0608F4BDCF848195811E
:10316000A681B78188159905AA05BB0508F4B3CFD8
:1031700089899A89AB89BC8986879787A08BB18B0F
:103180004EEC50E070E060E0C8010E94CA11312CA2
:10319000C701829698AB8FA7F701B696FAABE9AB59
:1031A00008969CAB8BAB67019AE1C90ED11CBD960A
:1031B000FEABEDABC701429698AF8FABFD97FAAF70
:1031C000E9AF4701FEE18F0E911CF801818D928DD0
:1031D000181619060CF080CFC8010E94E91183333C
:1031E000910509F4B2C014F58130910509F464C069
:1031F00044F4892B51F3C8010E94E911AC01552711
:1032000075C08330910509F462C00697A1F7C80123
:103210000E94E911B82E44E050E0B401C8010E94B8
:10322000CA11EB2DE450FF0BAF0160C08A3391054A
:1032300009F45FC084F585339105B1F1C697D9F6DD
:10324000C8010E94E9115C01B601CE0189960E9475
:103250008A128BA59CA5ADA5BEA5892B8A2B8B2B8D
:10326000B1F0EDA9FEA94080518062807380B60163
:10327000CE0183960E948A128DA19EA1AFA1B8A50E
:10328000A501481659066A067B0609F0B8CF44E046
:1032900050E0B60118C08B33910509F440C08F3F50
:1032A000910509F492CFA7CFC8010E94E911C80186
:1032B0000E94E911382E89CFC8010E94E91144E02B
:1032C00050E06FA978ADC8010E94CA117ECFC80135
:1032D0000E94E911B82E44E050E069AD7AADC80112
:1032E0000E94CA118B2D8450990BAC0170E060E0F4
:1032F000EACFC8010E94E91144E050E069A97AA927
:10330000C8010E94CA11F70166A177A180A591A505
:103310000E94D73366A377A380A791A756CFC80191
:103320000E94E91144E050E06BA97CA9C8010E9409
:10333000CA11F70162A573A584A595A50E94D7338C
:1033400062A773A784A795A740CFC8010E94E9117F
:1033500044E050E06FA578A9C8010E94CA11F701A6
:1033600062A173A184A195A10E94D73362A373A324
:1033700084A395A366A777A780AB91AB26CF332410
:103380003A94AACE0F931F93CF93DF93CDB7DEB7B6
:1033900062970FB6F894DEBF0FBECDBF8C01CB0194
:1033A0004AE0BE016F5F7F4F0E94EC2EBE016F5F4F
:1033B0007F4FC8010E949B1762960FB6F894DEBF3C
:1033C0000FBECDBFDF91CF911F910F9108953F9216
:1033D0004F925F926F927F928F929F92AF92BF9225
:1033E000CF92DF92EF92FF920F931F93CF93DF93D1
:1033F000CDB7DEB7A1970FB6F894DEBF0FBECDBF35
:103400005C010DB71EB719A308A360E070E0CB0103
:103410000E94CE02D50191968D919C919297912C0C
:10342000029709F498C090968C9190978F5F909630
:103430008C9390975E962D913C91232B19F09924B3
:10344000939482C08330D8F7F501828593850E94DA
:10345000CA08882309F43EC38E010F5F1F4F38014D
:10346000D5011A96ED91FC9180819181DC01ED915D
:10347000FC910084F185E02D0995181619060CF0D1
:1034800029C3D5011A96ED91FC9145E050E0BE01AB
:10349000695E7F4F808191810E941003009701F344
:1034A000059709F04AC0888D998D98278927982714
:1034B000998F888FEA8CFB8CFE24EF24FE24FB8EF0
:1034C000EA8E892BD1F18F8981116AC00E94010394
:1034D000F501608B718B828B938B21A132A14A8D78
:1034E0005B8D232B09F057C0288D398D2130310594
:1034F00009F051C049305105E1F0483C510519F03F
:1035000044305105D1F4D50158966D937D938D9338
:103510009C935B97E1E0F0E09296FC93EE93919799
:10352000C5010E94752360E070E0CB010E94CE02CD
:1035300097CF83E090E092A381A3D5011A968D9155
:103540009C910E94DD08912CD50190968C919097CA
:10355000815090968C93892DE8A1F9A10FB6F8942B
:10356000FEBF0FBEEDBFA1960FB6F894DEBF0FBE33
:10357000CDBFDF91CF911F910F91FF90EF90DF9022
:10358000CF90BF90AF909F908F907F906F905F9003
:103590004F903F9008954530510509F061CFCDCF50
:1035A000F50182859385F1E0EF16FF0640F0D50125
:1035B00092961C921E9291970E94DD0851CF8DB673
:1035C0009EB697012F5F3F4FEDB7FEB7E21BF30B9F
:1035D0000FB6F894FEBF0FBEEDBF0DB71EB70F5F5D
:1035E0001F4FA701B801DC018D919C910E9410032F
:1035F0008E159F0509F05FC0EA8DFB8DE00FF11F6E
:1036000010820E940103F501608B718B828B938B7A
:103610008F89843109F4ABC0E8F48F3009F4A7C076
:10362000813109F43AC2863009F04CC2488D598D77
:10363000D12CC12CF12CE12C08EC10E030E020E082
:1036400060E0C5010E945D1E0FB6F8949EBE0FBEDD
:103650008DBE06CF8932C9F08733B1F38D3109F0C1
:1036600031C2D50181A192A1892B01F7E1E0F0E0FF
:103670009296FC93EE939197C5010E94752360E0AA
:1036800070E0CB010E94CE02D1CF86859785892B31
:1036900039F480E490E00E94D52CF5019787868765
:1036A000EA8CFB8CE00EF11E1A830983FC82EB820C
:1036B0000E151F0530F00FB6F8949EBE0FBE8DBEDE
:1036C0003CCF40E450E0B801D5011E968D919C910D
:1036D0000E94DA34D5011E96ED91FC9117AEC3011C
:1036E0000E945323FC018081918100E510E08E153A
:1036F0009F0560F489819A810097A9F12B813C8113
:103700008217930780F50E94BC2E8B01D5011A9673
:103710008D919C910E94DD08D5011A96ED91FC9146
:103720001B971E968D919C911F9791878087138779
:10373000028792961C921E9291970E940103DC01CF
:10374000CB0188589341A109B109F501848B958B70
:10375000A68BB78B808B918BA28BB38B808F918F35
:10376000A28FB38F71CF60E070E0CB01CECF888D98
:10377000998DD5015F969C938E935E974A8C5B8C56
:103780006801C40CD51C1D8F0C8FDF8ECE8E0C15DE
:103790001D0508F013C1F801E080F180CE014C96C0
:1037A0000E945323DC018D919C918C159D0508F09E
:1037B00005C18C8D9D8DFC012081213459F4019629
:1037C0000E949E2E4EE0342E380E069744F033248D
:1037D0003A9405C0CE014C960E946623382EF6E737
:1037E000EF16F2E7FF0609F406C138F531E6E316F5
:1037F00032E7F30609F4E6C044E6E41642E7F406CD
:1038000009F478C050E7E5165DE6F50609F037C122
:103810008C8D9D8D8C159D0508F0D0C0FC012081FC
:103820002134A9F501960E949E2E3EE0F32EF80E5B
:10383000069794F1FF24FA942FC084E6E81687E7F0
:10384000F80609F4A2C096E7E91697E7F90609F425
:10385000E9C0A1E6EA16A7E7FA0609F010C1CE0111
:103860004C960E945323DC018D919C918C159D05F3
:1038700008F0A4C061E0832D0E94FB01CE014C96AC
:103880000E946623BC01832D0E94370297C0CE019F
:103890004C960E946623F82ECE014C960E9453232C
:1038A0000C8D1D8D64E272E0C8010E94CA3460E094
:1038B000892B79F067E272E0C8010E94CA34892B33
:1038C00039F06BE272E0C8010E94CA34892B49F4D6
:1038D00061E08F2D0E94FB01CE014C960E94532384
:1038E00097CF6FE272E0C8010E94CA34892BA1F71A
:1038F00062E0EFCF7A8A698A1C8A1B8A00E110E0B5
:103900001E8B0D8B62E372E0CE0141960E949B17E5
:10391000032D10E0B801CE0141960E94C219F801B2
:10392000E85DFD4F8491F801EC5EFD4FF49000508E
:103930001E4FF801049160E070E0002389F08111CE
:103940000E94A401E02FF0E0EE0FFF1FEA50FE4FAF
:10395000A591B491EC91FE2261E070E009F460E081
:10396000CE0141960E94C2190B891C890150110990
:1039700029893A89D12CC12CF12CE12C50E040E06E
:1039800064E1C5010E945D1E19C0CE014C960E94E3
:103990005323DC018D919C918C159D0578F461E099
:1039A000832D0E94FB01CE014C960E94662361E0AC
:1039B000892B09F460E0832D0E94CD01F501178E5B
:1039C000168E42CE7A8A698A1C8A1B8AE0E1F0E070
:1039D000FE8BED8B65E372E0CE0141960E949B1752
:1039E000632D70E0CE0141960E94C219832D0E9482
:1039F0009402BC01B5CF3982BFE1B315F8F2E32DD3
:103A0000F0E0EE0FFF1FE45CFD4F2591349121158E
:103A10003105A1F2E1E02A383E0781F2C301F90144
:103A20000995CCCFCE014C960E9453238C8D9D8D51
:103A30009C01201B310B421A530A9A8389835C82B2
:103A40004B825E824D82398AFFE1F31508F4B6CFCE
:103A5000E32DF0E0EE0FFF1FE458FD4F2591349168
:103A60002115310509F4AACF01E02938300709F4FE
:103A7000A5CFB301CE014196F90109959FCFD5019C
:103A80005E964D915C91D12CC12CF12CE12C02E081
:103A900010E030E020E060E074CF8A8D9B8D800FD5
:103AA000911F1A8309839C838B830817190708F0D9
:103AB000CBCDC3010E945323D5015F961C921E9269
:103AC0005E97C2CDF50112A211A2828593850E9454
:103AD000DD08BACD0E9401032B013C01F50182856E
:103AE00093850E94CA08D50191962D913C91213071
:103AF000310509F05EC0F501811109C0408E518E7B
:103B0000628E738E12A211A2828593851ACD80894E
:103B10009189A289B38993018201081B190B2A0B91
:103B20003B0BD901C801893116EF9107A105B105F9
:103B300048F7893C9F4AA105B10590F4848995898D
:103B4000A689B78993018201081B190B2A0B3B0B2D
:103B5000D901C801893C9F4AA105B10508F46FCC81
:103B6000F501808D918DA28DB38D93018201081B8B
:103B7000190B2A0B3B0BD901C80181379741A105CD
:103B8000B10508F45CCCD12CC12CF12CE12C10E057
:103B900000E030E020E050E040E066E0C5010E9437
:103BA0005D1ED50158964D925D926D927C925B9709
:103BB00046CC232B09F043CCF501408D518D628D0D
:103BC000738D93018201041B150B260B370BB90172
:103BD000A801882381F0413757416105710508F438
:103BE0002ECC828593850E94DD08D50192961C9289
:103BF0001E929197A8CC493853416105710508F48C
:103C00001ECC828593850E94DD08D5011A960D9100
:103C10001C91F80162857385C8010E948308D80150
:103C20001C968C931C9781110DC01A968D919C91B6
:103C30008035910599F460E97FE1C8010E9483080D
:103C4000F8018487F8019484911014C0D501589626
:103C50004D925D926D927C925B9776CC80399F41BC
:103C600089F760E570E0C8010E948308D8011C96BE
:103C70008C93E8CF81E090E0F501958F848F2485C7
:103C80003585F90101900020E9F731978F01021B7A
:103C9000130BD12CC12CF12CE12C41E050E06DE153
:103CA000C5010E945D1EF50184899589A689B789A1
:103CB000808F918FA28FB38F47CC2F923F924F92DC
:103CC0005F926F927F928F929F92AF92BF92CF92AC
:103CD000DF92EF92FF920F931F93CF93DF93CDB7B5
:103CE000DEB7C256D1090FB6F894DEBF0FBECDBF06
:103CF0005C01A1966FAFA1974A01A3963FAF2EAF8B
:103D0000A397380117012601DC011A968D919C9129
:103D10000E94CA08882309F430C1A196BFADA197BB
:103D2000BB2351F0B63041F0BD3131F0F50181A136
:103D300092A1019709F021C1A1968FADA1978F5053
:103D4000863080F5F50184899589A689B789C08870
:103D5000D188E288F388C816D906EA06FB0610F473
:103D60006C017D01F2E4CF0ED11CE11CF11C0E941C
:103D70000103A7019601261B370B480B590BDA01EB
:103D8000C901B7FD14C1C5010E94E7190E940103D2
:103D9000A7019601261B370B480B590BDA01C90105
:103DA000B7FFF1CFF50180819181019709F052C0F1
:103DB00082E090E091838083228133814481558128
:103DC0006681778180859185A0E0FE01EE5BFF4FE3
:103DD0000E94DE3309F4F4C06C96FFAFEEAF6C972F
:103DE0006E961FAE1EAE6E9788E190E0A0969FAFD4
:103DF0008EAFA09762E272E0CE01865A9F4F0E947A
:103E00009B17D50112966D917D918D919C9115977F
:103E10002AE0AE014F5F5F4F0E94142FBE016F5F1B
:103E20007F4FCE01865A9F4F0E949B176E960EAD14
:103E30001FAD6E97015011096C962EAD3FAD6C977A
:103E4000D12CC12CF12CE12C50E040E065E1C50102
:103E50000E945D1E8114910481F4F501868C978C7B
:103E60008114910451F4848D958D019609F4BDC09F
:103E7000958F848FF501848C958CA3962EAD3FADE4
:103E8000A397232B09F4B6C093012B5F3F4FF12C6E
:103E9000E12C2114310409F07201E20EF31EA19607
:103EA0003FADA19739839824892498249B828A82E4
:103EB000C301840D951D9827892798279D838C839E
:103EC000D5011A96ED91FC9180819181DC01ED91F3
:103ED000FC910280F381E02D45E050E0BE016F5F70
:103EE0007F4F09956C0160E070E0CB010E94CE022B
:103EF000A196BFADA197BB23A9F161147104C9F0CC
:103F0000D5011A96ED91FC9180819181DC01ED91B2
:103F1000FC910280F381E02DA301A3966EAD7FADED
:103F2000A3970995C80ED91E60E070E0CB010E94EE
:103F3000CE0241145104B1F0D5011A96ED91FC91D5
:103F400080819181DC01ED91FC910280F381E02D73
:103F5000A201B1010995C80ED91E60E070E0CB0145
:103F60000E94CE02CE14DF0409F447C0F50112A26C
:103F700011A2828593850E94DD08CE59DF4F0FB6CE
:103F8000F894DEBF0FBECDBFDF91CF911F910F918F
:103F9000FF90EF90DF90CF90BF90AF909F908F9069
:103FA0007F906F905F904F903F902F900895D50134
:103FB00090968C918111F6CEC5010E94E719F2CE40
:103FC000FA83E9831C821B8284E090E09E838D83C8
:103FD00068E372E0CE0101960E949B170B811C8161
:103FE0000150110929813A812BCF81E090E0958F12
:103FF000848F40CF25E030E04ACF0E940103D501F5
:1040000054966D937D938D939C935797B6CFCF9293
:10401000DF92EF92FF920F931F93CF93DF93CDB771
:10402000DEB7C658D1090FB6F894DEBF0FBECDBFBC
:104030008C01CE010196CF57DF4F99838883C158F9
:10404000D040CD57DF4F19821882C358D04080E846
:1040500090E0CB57DF4F99838883C558D0406DE4FB
:1040600072E0CE018F579F4F0E949B1766E070E071
:10407000CE018F579F4F0E94C219B801CE018F57B2
:104080009F4F0E949B17CD57DF4F08811981C3585E
:10409000D04001501109CF57DF4F28813981C158D5
:1040A000D040D12CC12CF12CE12C50E040E064E157
:1040B00088EA96E00E945D1ECA57DF4F0FB6F8945B
:1040C000DEBF0FBECDBFDF91CF911F910F91FF904B
:1040D000EF90DF90CF900895CF92DF92EF92FF9212
:1040E0000F931F93CF93DF93CDB7DEB7C658D10997
:1040F0000FB6F894DEBF0FBECDBF7C018B01CE01A1
:104100000196CF57DF4F99838883C158D040CD5750
:10411000DF4F19821882C358D04080E890E0CB5717
:10412000DF4F99838883C558D0406DE472E0CE019B
:104130008F579F4F0E949B17B701CE018F579F4FFC
:104140000E94C219B801CE018F579F4F0E94C21919
:10415000CD57DF4F08811981C358D0400150110954
:10416000CF57DF4F28813981C158D040D12CC12C85
:10417000F12CE12C50E040E064E188EA96E00E94F6
:104180005D1ECA57DF4F0FB6F894DEBF0FBECDBF1E
:10419000DF91CF911F910F91FF90EF90DF90CF9023
:1041A00008958F929F92AF92BF92CF92DF92EF923B
:1041B000FF920F931F93CF93DF93CDB7DEB7C75A0C
:1041C000D1090FB6F894DEBF0FBECDBF0E943408F0
:1041D0006B017C01CE0101964C01CE55DF4F9983D6
:1041E0008883C25AD040CC55DF4F19821882C45AF6
:1041F000D04020E8A22EB12CCA55DF4FB982A88248
:10420000C65AD0406DE472E08F559F4F0E949B17B5
:1042100061E070E0CE018E559F4F0E94C2198E0161
:104220000F571F4F23E045E0C701B6010E94B72C8E
:10423000B801CE018E559F4F0E949B17CC55DF4F82
:1042400008811981C45AD04001501109CE55DF4F61
:1042500028813981C25AD040D12CC12CF12CE12CBB
:1042600050E040E064E188EA96E00E945D1E0E9412
:1042700060088C01CE55DF4F99828882C25AD040A7
:10428000CC55DF4F19821882C45AD040CA55DF4F2F
:10429000B982A882C65AD0406DE472E0CE018E5534
:1042A0009F4F0E949B1763E070E0CE018E559F4F99
:1042B0000E94C2194AE0BE016F577F4FC8010E9499
:1042C000362FBE016F577F4FCE018E559F4F0E94F4
:1042D0009B17CC55DF4F08811981C45AD04001503B
:1042E0001109CE55DF4F28813981C25AD04050E0A4
:1042F00040E064E188EA96E00E945D1EC955DF4F08
:104300000FB6F894DEBF0FBECDBFDF91CF911F91E6
:104310000F91FF90EF90DF90CF90BF90AF909F9064
:104320008F9008951F920F920FB60F9211242F9322
:104330003F938F939F93AF93BF9380913604909157
:104340003704A0913804B09139043091350423E04A
:10435000230F2D3758F50196A11DB11D209335046B
:104360008093360490933704A0933804B0933904B3
:1043700080913A0490913B04A0913C04B0913D049B
:104380000196A11DB11D80933A0490933B04A09324
:104390003C04B0933D04BF91AF919F918F913F91A9
:1043A0002F910F900FBE0F901F90189526E8230FA6
:1043B0000296A11DB11DD2CF1F920F920FB60F9280
:1043C00011242F933F934F935F936F937F938F931A
:1043D0009F93AF93BF93EF93FF938BE594E00E947D
:1043E000DE03FF91EF91BF91AF919F918F917F91EC
:1043F0006F915F914F913F912F910F900FBE0F9052
:104400001F9018951F920F920FB60F9211242F93A1
:104410008F939F93EF93FF93E0916B04F0916C0463
:104420008081E0917104F091720482FD1BC0908143
:10443000809174048F5F8F7320917504821741F00F
:10444000E0917404F0E0E55AFB4F958F809374047B
:10445000FF91EF919F918F912F910F900FBE0F9031
:104460001F9018958081F4CF1F920F920FB60F9274
:1044700011242F933F934F935F936F937F938F9369
:104480009F93AF93BF93EF93FF938091B900887F81
:10449000803609F44AC0F0F5883209F4A7C018F54F
:1044A000803109F49BC0B8F4882309F4F9C088303E
:1044B00009F494C0FF91EF91BF91AF919F918F91BB
:1044C0007F916F915F914F913F912F910F900FBE10
:1044D0000F901F901895883109F488C0803251F7E9
:1044E0008093910314C0803409F49DC040F480335C
:1044F000B9F38833F9F68093910385ECB0C0803529
:1045000009F485C0883509F496C0883499F60E946C
:10451000EB17D0CF883909F48CC038F5883729F0EB
:1045200050F4883611F0803729F683E080939303A6
:1045300010926C0357C0883809F47BC0803919F099
:10454000803809F0B7CF80916C03803208F071C0D9
:10455000E0916C0381E08E0F80936C038091BB002F
:10456000F0E0E45BFC4F80833DC0803B39F0E0F439
:10457000803A09F479C0883A09F09CCF84E08093AE
:10458000930310924B0310924A03E0912B04F09195
:104590002C04099580914A0381110FC081E080931A
:1045A0004A0310922A0309C0803C09F4A6CF883C34
:1045B00009F4A3CF883B09F07DCFE0914B0381E064
:1045C0008E0F80934B03F0E0E65DFC4F808180937B
:1045D000BB0090914B0380914A0329C080916E03E8
:1045E0008093BB0085EC8093BC0064CF90919003D6
:1045F00080918F03981758F5E091900381E08E0F1A
:1046000080939003F0E0E159FC4F8081E9CFE09185
:10461000900381E08E0F809390038091BB00F0E0C7
:10462000E159FC4F80839091900380918F039817FC
:10463000C8F285E8D8CFE091900381E08E0F809397
:1046400090038091BB00F0E0E159FC4F80838091A2
:10465000920381115CCF81E080936D0384EA8093A3
:10466000BC001092930326CF85EC8093BC0010927F
:10467000930380916C03803230F4E0916C03F0E09E
:10468000E45BFC4F108260916C0370E0E0912904C0
:10469000F0912A048CE493E0099510926C030ACF00
:1046A0001092910334CFDC01ED91FC91119730977A
:1046B00061F012962D913C911397E217F30728F4BD
:1046C00001900020E9F7ED93FC930895FC018081AF
:1046D0009181009739F0228133818217930710F47A
:1046E0000C949E2E90E080E00895AF92BF92CF92FE
:1046F000DF92EF92FF920F931F93CF93DF93CDB78B
:10470000DEB7CC5BD1090FB6F894DEBF0FBECDBFCC
:104710005C01CE0189589F4FC954DF4F998388832C
:10472000C75BD040C754DF4F19821882C95BD040A5
:1047300080E490E0C554DF4F99838883CB5BD04001
:104740006AE372E0CE0189549F4F0E949B176FE38A
:1047500072E0CE0189549F4F0E949B1746E750E0BC
:104760006AE671E0CE0101960E94E32EC754DF4F46
:10477000C880D980C95BD040C954DF4FE880F98038
:10478000C75BD04006E710E09E012F5F3F4F50E02F
:1047900040E061E1C5010E945D1EC454DF4F0FB6C9
:1047A000F894DEBF0FBECDBFDF91CF911F910F9167
:1047B000FF90EF90DF90CF90BF90AF900895EBE522
:1047C000F4E01382128288EE93E0A0E0B0E08483EC
:1047D0009583A683B78329E631E03183208325ECD6
:1047E00030E03587248724EC30E03787268720ECBB
:1047F00030E0318B208B21EC30E0338B228B22ECAC
:1048000030E0358B248B26EC30E0378B268B118EF5
:10481000128E138E148EE8EFF4E0138212828483DA
:104820009583A683B7838BE791E091838083E4E04F
:10483000F5E08BEC91E091838083128213821482E5
:104840001582EAE0F5E0918380831282138214825C
:104850001582E0E1F5E09183808312821382148255
:104860001582E6E1F5E0918380831282138214823F
:104870001582ECE1F5E09183808312821382148229
:104880001582E8E2F5E0918380831282138214821C
:104890001582E2E2F5E09183808312821382148212
:1048A0001582EEE2F5E091838083128213821482F6
:1048B0001582E4E3F5E091838083128213821482EF
:1048C0001582EDEEF6E091838083128213821482CA
:1048D0001582EEEDF6E01382128229E931E0318390
:1048E000208324E0248728EE33E036872587A1ED56
:1048F000B6E013969C938E93129714961D921D9278
:104900001D921C92179719961C921E9218971B962F
:104910001C921E921A971C961C921C971196FC933F
:10492000EE9340E757E160E070E04483558366838F
:104930007783E8EAF6E011821082128213821482F1
:1049400015821682178210861186B387A287158674
:10495000148617861686108A118A128A138A148A78
:10496000158A168A178A108E118E128E138E158E46
:10497000148E178E168E10A212A211A28FEF9FEF27
:104980009093A7068093A606EAE3F5E013821282CD
:104990008DE891E09183808387E2848380E1818741
:1049A00082E0828713860895CF93DF93CDB7DEB779
:1049B000E3970FB6F894DEBF0FBECDBF789484B5F1
:1049C000826084BD84B5816084BD85B5826085BD0B
:1049D00085B5816085BD80916E00816080936E0099
:1049E000109281008091810082608093810080918B
:1049F000810081608093810080918000816080933C
:104A000080008091B10084608093B1008091B000FB
:104A100081608093B00080917A00846080937A00F6
:104A200080917A00826080937A0080917A00816020
:104A300080937A0080917A00806880937A00109247
:104A4000C1008EEF8093CB069DEE9093CC062AEBAF
:104A50002093CD068093CE068093CF069093D00608
:104A600020E031E0D9010D900020E9F79D012150AF
:104A70003140A0E0B1E0E1E0F0E0AD014050514054
:104A80004217530784F4AF014F5F5F4F6D91E855B4
:104A9000F94F83A1862783A34630510514F041E0E6
:104AA00050E0FA01EACF8091210481112AC01092CE
:104AB00009041092080488EE93E0A0E0B0E080932F
:104AC0000A0490930B04A0930C04B0930D048FE39D
:104AD00091E090930704809306048BEC91E090930F
:104AE0001504809314041092160410921704109267
:104AF00018041092190484E080931E0481E08093CE
:104B0000210483EC93E09093C2038093C1038091CE
:104B1000C0038111ADC060E372E080E090E00E94CC
:104B2000CE02DFB6F8940AE012E0EEE1EE2EE2E00B
:104B3000FE2E8091BE03811125C0F8018491F701FA
:104B40009491E82FF0E0EE0FFF1FEE51FE4FA5917C
:104B5000B4918C91982321F461E08AE00E94CD0108
:104B600061E08AE00E94FB018CB580618CBD8CB550
:104B700080648CBD61E08DE00E94FB0161E08BE010
:104B80000E94FB018091BE038F5F8093BE03DFBE56
:104B9000F8010491E02FF0E0EE0FFF1FE451FE4F0B
:104BA000859194919093BD038093BC03F701E490A9
:104BB000E092BB0361E08AE00E94FB010E945E0676
:104BC00080E591E00E948B0184E380935A0480E8A1
:104BD0000E942A070E94340C882309F4FDC188E052
:104BE0000E942A070E94210C883009F0F5C180E15B
:104BF0000E942A070E94210C803109F0EDC180E05B
:104C00000E942A070E94210C182F8111E5C141E062
:104C100050E0BE016F5F7F4F8FE190E00E94AC0AD1
:104C20008981833009F0D8C180E48093BF0342E0DA
:104C30006EE170E0812F0E94860742E06FE170E034
:104C4000812F0E9486071F5F143089F740E06EE1D4
:104C500070E0812F0E94860740E06FE170E0812FB5
:104C60000E9486071F5F183089F781E08093C00398
:104C700080E591E00E948B0146E050E06BEC76E02D
:104C800089E090E00E947A068BEC91E09A83898318
:104C90001B821C821D821E8244E050E0BE016D5FBB
:104CA0007F4F8FE090E00E947A060091C10310913F
:104CB000C203D80192961D921D921D921C92959747
:104CC000F80116A217A210A611A69A961D921D927F
:104CD0001D921C929D9780E69AEEA0E0B0E086AB14
:104CE00097ABA0AFB1AF80EA9FE0A0E0B0E082AFA9
:104CF00093AFA4AFB5AFD801189686E0FD01282F79
:104D000011922A95E9F79801225F3F4F94E1F9014A
:104D100011929A95E9F7EBECF6E001900D928A95E5
:104D2000E1F72C5C3F4F39AB28ABD9011C920E94B4
:104D3000462E2FEC37E040E050E00E94B632DC0116
:104D4000CB010196A11DB11DF80184839583A68333
:104D5000B78380839183A283B3835801F3E4AF0EBA
:104D6000B11CC5010E947C0B64E470E0C5010E9487
:104D7000E50E882309F499C10E9401032B013C012F
:104D800043E0242E58EEC52E53E0D52EE12CF12C15
:104D9000912C812CA8A9B9A98C918330B9F18111EA
:104DA0008EC1F80184819581A681B7810196A11DEC
:104DB000B11D84839583A683B7830E940103641980
:104DC000750986099709A70196010E941F33A90159
:104DD00061E0C8010E948D1681E0A8A9B9A98C9351
:104DE000F1E08F169104B1F20E9401036419750974
:104DF00086099709D801D6962D913D914D915C91E8
:104E0000D997261737074807590710F6C5010E949A
:104E10007C0BF80184819581A681B7810196A11D43
:104E2000B11D84839583A683B7830E940103F80193
:104E3000FE9660837183828393838A94892809F024
:104E400034C180E591E00E948B010091C103109173
:104E5000C203B801625F7F4FCE0101960E948A12A1
:104E600044E050E0BE016D5F7F4F8FE090E00E9414
:104E70007A06B8016A5E7F4FCE0101960E948A12BF
:104E800044E050E0BE016D5F7F4F81E090E00E9402
:104E90007A06B8016E5E7F4FCE0101960E948A129B
:104EA00044E050E0BE016D5F7F4F85E090E00E94DE
:104EB0007A06B801625E7F4FCE0101960E948A1287
:104EC0008B819C81AD81BE818093240590932505C3
:104ED000A0932605B09327050E94A9027F738091B5
:104EE0002101909122016827792770932201609314
:104EF000210168EE73E080E090E00E94CE028BEC2E
:104F000091E09A8389831B821C821D821E8280E528
:104F100091E00E948B0144E050E0BE016D5F7F4F45
:104F20008FE090E00E94AC0A80E091E09093B5069B
:104F30008093B4060E940103DC01CB0188589341A1
:104F4000A109B1098093BC069093BD06A093BE064B
:104F5000B093BF068093B8069093B906A093BA06A3
:104F6000B093BB068093C0069093C106A093C2067F
:104F7000B093C306E091B206F091B30680E592E0EB
:104F80009187808780E590E0938782878091B20641
:104F90009091B3060E94DD081092CA061092C906CD
:104FA0000E9401034B015C018091C9069091CA06E1
:104FB000019709F451C10E940103681979098A090E
:104FC0009B09603576448105910508F045C188EA62
:104FD00096E00E94E719E8CF87E380935A0480E8BF
:104FE0000E942A070E94340C882329F188E00E943D
:104FF0002A070E94210C8830F1F480E10E942A07E0
:105000000E94210C182F8031B1F480E00E942A0701
:105010000E94210C81110FC041E050E0BE016F5F82
:105020007F4F89E390E00E94AC0A8981843019F4B3
:105030001093BF031ACE83E380935A0480E80E9442
:105040002A070E94340C882371F180E10E942A070C
:105050000E94210C803139F582E10E942A070E94CA
:10506000210C823101F580E00E942A070E94210C68
:10507000811119C084E08093BF0315E51FA741E0AB
:1050800050E0BE01615D7F4F8BE190E00E947A06A7
:105090001EA741E050E0BE01625D7F4F8AE190E0D3
:1050A0000E947A06E2CD10925A0460E177E280E035
:1050B00090E00E94CE02F0E0E0E00995FFCF84305E
:1050C00001F5F80184819581A681B7810196A11D22
:1050D000B11D84839583A683B7830E94010364195D
:1050E000750986099709A70196010E941F33A90136
:1050F00063E0C8010E948D16E2E0A8A9B9A9EC936B
:105100006FCE813069F5D801DA964D915D916D9140
:105110007C91DD979E012F5F3F4FC8010E942318AD
:10512000382EB2E08B1391C089819A81AB81BC810A
:10513000F80184839583A683B7830E9401036419D1
:10514000750986099709A70196010E941F33A901D5
:1051500063E0C8010E948D16A8A9B9A93C9240CE6F
:10516000823009F03DCEF80142AD53AD64AD75AD6E
:105170009E012F5F3F4FC8010E942318382EF5E093
:105180008F135CC0A8A9B9A92C92F80182A193A1A0
:10519000A4A1B5A1892B8A2B8B2B41F484E893E041
:1051A000A0E0B0E082A393A3A4A3B5A3F80186A1D5
:1051B00097A1A0A5B1A5892B8A2B8B2B61F482A185
:1051C00093A1A4A1B5A1B695A7959795879586A318
:1051D00097A3A0A7B1A7F80182A593A5A4A5B5A5FB
:1051E000892B8A2B8B2BA9F482A193A1A4A1B5A111
:1051F000AC01BD0123E076956795579547952A95B3
:10520000D1F7841B950BA60BB70B82A793A7A4A776
:10521000B5A7F80186A197A1A0A5B1A586A797A7D4
:10522000A0ABB1AB82A593A5A4A5B5A582AB93AB6A
:10523000A4ABB5AB88248394912CD2CDF6E08F1328
:1052400004C0A8A9B9A91C92CBCDBFEF3B12C8CD11
:10525000E8A9F9A91082C4CD8091C9069091CA0627
:10526000019709F093CE1092300410922F041092FF
:105270002E0410922D040E9499048DE093E09093E7
:105280002C0480932B048EE093E090932A04809367
:10529000290410923F0580914405823018F098E06F
:1052A00090933F058093420562E370E080E090E0D8
:1052B0000E94CE02609145058AE395E00E945D055B
:1052C00068EE73E080E090E00E94CE0260E38AE343
:1052D00095E00E94BB090BE416E4C8010197F1F7C1
:1052E00060E38AE395E00E94BB09C8010197F1F7EA
:1052F00060E38AE395E00E94BB0983E592E00197B1
:10530000F1F760E28AE395E00E94BB0960913F05F6
:10531000606240E08AE395E00E94D40984E08093D3
:10532000400540E06CE08AE395E00E94D40940E04B
:1053300061E08AE395E00E94D4090BE31FE1C80114
:105340000197F1F762E0F62EF092410540E066E049
:105350008AE395E00E94D40940E062E08AE395E0A8
:105360000E94D409C8010197F1F788E080934505B0
:1053700060E08AE395E00E945D0540E061E08AE339
:1053800095E00E94D409C8010197F1F740E062E07E
:105390008AE395E00E94D409C8010197F1F760E023
:1053A00080E00E94EB098CE592E00E94620961E0D6
:1053B00080E00E94EB098FE592E00E94620961E0C3
:1053C00084E00E94FB0161E085E00E94FB0160E057
:1053D00084E00E94CD0160E085E00E94CD0161E0A3
:1053E00083E00E94FB01E0916B04F0916C04F08279
:1053F000E0916704F09168041082E0916904F091F3
:105400006A0487E6808310927304E0916F04F09140
:10541000700486E08083E0916D04F0916E048081D9
:1054200080618083E0916D04F0916E0480818860DA
:105430008083E0916D04F0916E04808180688083A8
:10544000E0916D04F0916E0480818F7D80838FEFF9
:1054500090E00E944D048FEF90E00E944D048FEF8A
:1054600090E00E944D048091A6069091A70697FFB8
:1054700022C00E940103E6E4F5E050E040E026E1AE
:10548000249FD001259FB00D11248D010A5B1A4F76
:10549000D801322F1D923A95E9F760837183828398
:1054A00093834F5F5F4F76964031510549F71092D5
:1054B000A7061092A6068091A6069091A70640978F
:1054C000CCF5E6E4F5E090E080E024813581232B03
:1054D00009F002C226813781232B09F0FDC126E1A4
:1054E000289F8001299F100D11240A5B1A4F88EE16
:1054F00093E0A0E0B0E0F80183879487A587B687A2
:1055000081ED90E2958384831286108A178681E06C
:10551000838B0E940103D8016D937D938D939C939F
:1055200013978091A6069091A70601969093A706DF
:105530008093A60622242394312CCC24CA94D12C07
:1055400088EA96E00E94E7190E94010368AB79ABF4
:105550008AAB9BAB36E4E32E35E0F32E8701F801EE
:10556000158A148A84819581892B21F486819781FB
:10557000892BA9F1D8014D905D906D907C90139787
:1055800068A979A98AA99BA9641975098609970947
:105590001B968D909D90AD90BC901E9768157905D7
:1055A0008A059B05E0F0A50194010E941F33C50107
:1055B000B4010E94C733460E571E681E791EF801BB
:1055C00040825182628273828389882341F02785D9
:1055D00030892115310509F086C1358A248A0A5E91
:1055E0001F4FF6E0063A1F0709F0B9CF10E000E0C0
:1055F000D70154968D919C915597892BE9F11A9674
:105600008C911A97882309F485C11696ED91FC9127
:10561000179718968D919C910995F7018489958922
:10562000029751F58091A6069091A706892B21F14A
:1056300084819581892B21F486819781892BE1F0E2
:1056400026E1209FF001219FF00D1124EA5BFA4F23
:10565000DF011D922A95E9F70E940103F70160839B
:105660007183828393838091A6069091A706019708
:105670009093A7068093A6060F5F1F4FF6E1EF0EEB
:10568000F11C0031110509F0B3CF19A618A61BA60D
:105690001AA61DA61CA670E060E0CE0188960E94A6
:1056A000C31728A539A581113AC12115310519F073
:1056B000C9010E94712D19A618A61DA61CA61BA61D
:1056C0001AA60E9434081BA21AA21DA21CA21FA285
:1056D0001EA28E010F5F1F4F22E044E00E94B72CF4
:1056E0007C01009709F42AC1FC0101900020E9F730
:1056F00031978F01081B190BB801CE0182960E94C9
:10570000C3172AA13BA1811112C12115310519F03E
:10571000C9010E94712D1BA21AA21FA21EA21DA2C6
:105720001CA288A599A5009709F410C16AA17BA1C4
:105730006115710509F408C14AA55BA52EA13FA119
:105740004217530708F400C10E94D3348EA19FA1D1
:105750009DA78CA71FA21EA28AA19BA1009711F052
:105760000E94712D60E082E00E94EB094CA55DA5CE
:1057700068A579A58AE395E00E9460030E9460080D
:105780008C01909334048093330461E082E00E94A2
:10579000EB09A80170E060E02AE08AE395E00E944E
:1057A00009098FE00E9494029695879596958795B2
:1057B000B601681B790B83E00E94370264E670E053
:1057C00080E090E00E94CE020E94340820E030E0A9
:1057D0004CE052E40E94C233181604F58091310463
:1057E0008823E1F01092310460E085E00E94CD0151
:1057F00060E087E00E94EB098FEF91E00E94620970
:1058000082E692E00E9407208AE892E00E94072048
:1058100070E060E082E090E00E946C2080913304B0
:1058200090913404803D9740F8F4809132048111C6
:105830001BC00E94580881E08093320461E087E039
:105840000E94EB098EE992E00E94620987EA92E0E9
:105850000E94072086EC92E00E94072061E070E041
:1058600084E090E00E946C20809133049091340495
:10587000883B9B40F1F4809132048823D1F00E9450
:1058800050081092320461E087E00E94EB098BEE31
:1058900091E00E9462098CED92E00E94072081EF66
:1058A00092E00E94072070E060E084E090E00E94B7
:1058B0006C2088A599A5009711F00E94712D80E0B9
:1058C00090E0892B09F43CCE0E94CA03882309F496
:1058D00037CE0E94000034CE019676968031910535
:1058E00009F0F3CD27CED8018189928982179307D9
:1058F00008F075CE358A248A0196928B818B8217A7
:10590000930708F46CCEE2E0F0E05596FC93EE933A
:10591000549765CE1496ED91FC9109957ECE1DA607
:105920001CA665EC72E0C9010E94D334CACE1FA345
:105930000EA3B701C9010E94D334F3CE8AA19BA163
:10594000009709F0E6CEE7CE0E94712D8AA19BA1B7
:1059500099A788A78CA19DA19BA78AA78EA19FA18B
:105960009DA78CA71BA21AA21DA21CA2F3CEEF9288
:105970000F931F93CF93DF93E80134E047FD34E1A9
:10598000042E000C550B57FF03C05195419551094A
:10599000E32E022F242FAE010E94502FCE01DF9163
:1059A000CF911F910F91EF9008950F931F93CF9375
:1059B000DF938230910510F482E090E0E091F506EB
:1059C000F091F60630E020E0B0E0A0E0309799F4E6
:1059D0002115310509F44AC0281B390B2430310543
:1059E000D8F58A819B816115710589F1FB0193834B
:1059F0008283FE0111C040815181028113814817C9
:105A00005907E0F04817590799F4109761F012967A
:105A10000C93129713961C933296CF01DF91CF917E
:105A20001F910F9108950093F5061093F606F4CF99
:105A30002115310551F04217530738F0A901DB0158
:105A40009A01BD01DF01F801C1CFEF01F9CF9093B9
:105A5000F6068093F506CDCFFE01E20FF31F81938A
:105A600091932250310939832883D7CF2091F306AF
:105A70003091F406232B41F4209125013091260129
:105A80003093F4062093F3062091230130912401F2
:105A90002115310541F42DB73EB7409127015091B2
:105AA0002801241B350BE091F306F091F406E21770
:105AB000F307A0F42E1B3F0B2817390778F0AC0131
:105AC0004E5F5F4F2417350748F04E0F5F1F50930E
:105AD000F4064093F306819391939FCFF0E0E0E0CA
